:020000040800F2
:1000000010060020450100080B020008030200084A
:1000100007020008FD010008B90200080000000006
:100020000000000000000000000000000F020008B7
:1000300001020008000000000D0200081102000883
:100040005F0100085F0100085F0100085F01000810
:100050005F0100085F0100085F0100085F01000800
:100060005F0100085F0100085F0100085F010008F0
:100070005F0100085F0100085F0100085F010008E0
:100080005F0100085F0100085F0100085F010008D0
:100090005F0100085F0100085F0100085F010008C0
:1000A0005F0100085F0100085F0100085F010008B0
:1000B0005F0100085F0100085F0100085F010008A0
:1000C0005F0100085F0100085F0100085F01000890
:1000D0005F010008850200088D0200085F0100082A
:1000E0005F0100085F0100085F0100085F01000870
:1000F0005F0100085F0100085F0100085F01000860
:100100005F0100085F0100085F0100085F0100084F
:100110005F0100085F0100085F0100085F0100083F
:100120005F0100085F0100085F0100085F0100082F
:10013000DFF80CD000F050F80048004789050008AF
:10014000100600200648804706480047FEE7FEE705
:10015000FEE7FEE7FEE7FEE7FEE7FEE7FEE7FEE777
:100160001502000831010008D2B201E000F8012BAD
:10017000491EFBD270470022F6E710B513460A4627
:1001800004461946FFF7F0FF204610BD421C10F848
:10019000011B0029FBD1801A70472DE9F04105466B
:1001A000002090460E46044600E0641C44450BD2F5
:1001B000285D00F00BF80746305D00F007F8381AAC
:1001C00002D1295D0029F0D1BDE8F081A0F1410103
:1001D000192900D820307047064C074D06E0E0682A
:1001E00040F0010394E8070098471034AC42F6D37E
:1001F000FFF7A2FF5C0E00087C0E000800BFFEE7C0
:10020000704700BFFEE700BFFEE7704770477047CA
:100210007047000008B51848006840F4700016499F
:1002200008601648006840F001001449086008465C
:10023000406840F0800048600020009002E0009894
:10024000401C009044F6206100988842F7D30020BB
:100250000A494860C86208460068094908400749D9
:1002600008604FF41F0088600846006820F4802072
:10027000086000F0C3FB08BD88ED00E000100240FC
:10028000FFFFF6FE10B500F0BDFB10BD10B507492D
:10029000074800F046FD40B1054800F0C5FCC4B277
:1002A0002146044800F0C5FC00BF10BD0503050051
:1002B000004400400038014000BFFEE70FB4054B8A
:1002C00010B503A9044A029800F017F810BC5DF8B5
:1002D00014FB0000190400080800002002E008C810
:1002E000121F08C1002AFAD170477047002001E0B0
:1002F00001C1121F002AFBD170472DE9F84F994622
:10030000924688460546002706E025280AD0514631
:100310004A4690476D1C7F1C28780028F5D1384646
:10032000BDE8F88F002315F8011F18462E2915D1B6
:1003300015F8011F04232A290DD06FF02F02297808
:10034000A1F13004092C09D800EB800002EB400039
:1003500008446D1CF3E758F8040B6D1C2A78002A3A
:10036000DDD0632A07D0732A0FD0104651464A4683
:1003700090477F1C2AE018F8042B8DF800200021FC
:100380008DF801106E46012103E058F8046B4FF020
:10039000FF315A074FF0000401D409E0641C844285
:1003A0000BDA8C42FADB325D002AF7D105E0641CDF
:1003B0008C42FCDB305D0028F9D1274404E016F8BC
:1003C000010B51464A469047641EF8D26D1CA3E7C4
:1003D000002106E0002200E0521CB2F5801FFBDB8A
:1003E000491C8142F6D3704770B504460D46022180
:1003F000064800F039F86420FFF7EAFF02210348BD
:1004000000F030F802A0FFF759FF70BD000C01406A
:100410004F4B0D0A0000000070B504460D46E1B2D6
:10042000024800F006FC204670BD00000038014084
:1004300070B504460D4604A106A0FFF73FFF07A0D4
:10044000FFF73CFF70BD00004D43555F56312E3025
:100450000000000025730D0A000000004F4B0D0A3C
:100460000000000041617047016170470AB10161FD
:1004700000E041617047F0B50446164600250022B1
:1004800001F00F0501F0100747B1042E05D145F02A
:100490000305E76B1F43E76300E0354300201EE0E0
:1004A000012787401F40C7B122684FEA800C0F2701
:1004B00007FA0CF7BA43870005FA07F73A432829E9
:1004C00004D1012787401F40676105E0482903D117
:1004D000012787401F4027612260471CB8B20828C7
:1004E000DED3082022E0012787401F40E7B1626881
:1004F000A0F108074FEA870C0F2707FA0CF7BA4359
:10050000A0F10807BF0005FA07F73A43282904D1EC
:10051000012787401F40676105E0482903D1012773
:1005200087401F4027616260471CB8B21028DAD3A9
:10053000F0BD000010B540F2046000F0A9F94FF4DE
:1005400060410548FFF790FF4FF4604303221021FC
:100550000148FFF790FF10BD0010014070B5044640
:100560000D46EAB204F10D00012303FA00F103483D
:10057000FFF77CFF02A0FFF7A1FE70BD0010014055
:100580004F4B0D0A000000000025082640F20260D3
:1005900000F07EF940F2036000F07AF9FFF7CAFF3D
:1005A00000F0F4FA23A0FFF789FE02212448FFF7A8
:1005B0005BFF0223032210212148FFF75CFF642028
:1005C000FFF706FF02211E48FFF74CFF30E01D48F1
:1005D000007800282CD00027002518E01A4800EBEE
:1005E0000514606890B12068FFF7D0FD8046424650
:1005F00016482168FFF7D1FD40B9144914A0FFF750
:100600005DFED4E90120E168904701276D1CB542E9
:10061000E4D317B90D4800F0A9FA4FF400710B4864
:10062000FFF7A9FD00200B4908600649087000BFCC
:10063000CDE700004D43555F53746172740D0A009D
:10064000000C0140040000207C0D00080C0000207C
:1006500025730000000000202DE9F04103460D46FF
:10066000164600240027A0462A48006800F4E060EF
:10067000B0F5E06F03D100BF4FF0040830E025482B
:10068000006800F4E060B0F5C06F03D101274FF0BF
:10069000030825E01F48006800F4E060B0F5A06F93
:1006A00002D10227B8461BE01A48006800F4E06057
:1006B000B0F5806F03D103274FF0010810E0154813
:1006C000006800F4E060B0F5407F03D104274FF0EC
:1006D000000805E04FF4A06000F020F80227B846BB
:1006E000C7F1040005FA00F4C8F104010F20C84066
:1006F0003040044324010848C45403F01F01012082
:1007000088405911890001F1E021C1F80001BDE8DC
:10071000F08100000CED00E000E400E0024901433C
:10072000024A1160704700000000FA050CED00E07D
:100730002DE9F04F8CB0074600200A904AA090E8BF
:10074000004CC068CDE905BECDF810A007900FF2AF
:100750001C1ADAE9000ACDE9020A0FF2101ADAE9E6
:10076000000ACDE9000A44484068C0F381000B90BC
:100770000B9820B1012804D002283FD103E03F4A62
:100780003EE03F4A3CE03C48406800F4803CBCF519
:10079000803F12D13848C06A00F08048B8F1000F9D
:1007A00001D1374C00E0374C3348406800F4003941
:1007B000B9F5003F02D1344C00E0344C2E4840687B
:1007C000C0F383412C48406800F0006008B141F05C
:1007D00010012948406800F0804008B141F0200134
:1007E0000F2901D2891C06E00F2903D33E2901D825
:1007F000491C00E03F2104FB01F201E01F4A00BF59
:1008000000BF1D484068C0F3031504A8465D22FAE6
:1008100006F319484068C0F3022502A8465D23FA92
:1008200006F0099014484068C0F3C2251DF8056021
:1008300023FA06F0089037B1012F06D0022F06D018
:10084000032F0AD106E00A9208E00A9306E009980D
:100850000A9003E008980A9000E000BF00BF0A98E1
:100860000CB0BDE8F08F00000000000000000000A8
:1008700001020304060708090010024000127A0072
:1008800080BA8C01006CDC02405DC60000093D00AE
:10089000064A02EB9011096800F01F0301229A40FA
:1008A0001143024B03EB901211607047001002409D
:1008B000064A02EB9011096800F01F0301229A40DA
:1008C0009143024B03EB90121160704700100240FD
:1008D000064A02EB9011096800F01F0301229A40BA
:1008E0001143024B03EB901211607047001002405D
:1008F000002000213E4A126842F480323C4B1A60CC
:1009000000BF401C3A4A126802F4003119B94FF690
:10091000FF729042F5D1364A126802F400320AB9E9
:1009200000BFFEE7324AD26942F08052304BDA61B2
:10093000304A126842F440422E4B1A602C4A5268E8
:100940002B4B5A601A4652685A601A46526842F453
:1009500080625A601A46526822F440325A601A463F
:10096000526842F440325A601A465268224B1A408A
:100970001F4B5A601A46526842F4C0125A601A4617
:10098000126842F080721A6000BF194A126802F0C1
:100990000072002AF9D0174A126842F48032154BCF
:1009A0001A6000BF134A526802F48032002AF9D05C
:1009B000104A126842F400320E4B1A6000BF0D4A12
:1009C000526802F40032002AF9D0094A526822F033
:1009D0000302074B5A601A46526842F002025A60FC
:1009E00000BF034A526802F00802002AF9D070479B
:1009F0000010024000700040FFFFC3B710B5FFF7C2
:100A000077FF10BD10B51A491A4800F08AF970B383
:100A1000184800F009F9C4B217490868411C164A81
:100A2000116016490C541648007838B9612C01D071
:100A3000412C03D101201249087017E010480078BA
:100A4000012807D1742C01D0542C03D102200C4969
:100A500008700BE00A480078022807D10A2C05D15B
:100A600001200849087000200549087000BF10BD2A
:100A70000503050000380140000000200C000020A4
:100A8000050000200400002010B540F20260FFF7CE
:100A9000FFFE40F20E60FFF7FBFE4FF400730322EF
:100AA00018211448FFF7E7FC4FF480630322042168
:100AB0001048FFF7E0FC104800F0CAF84FF4E131AD
:100AC0000D4800F069F804210B4800F046F90821B0
:100AD000094800F04AF9084800F002F900221146DE
:100AE0002520FFF7B9FD40F20531034800F00CF96D
:100AF00010BD0000000801400038014010B540F270
:100B00000260FFF7C5FE40F21170FFF7C1FE04233B
:100B1000032218211348FFF7AEFC08230322042107
:100B20001048FFF7A8FC104800F092F84FF4E131AC
:100B30000D4800F031F804210B4800F00EF90821AF
:100B4000094800F012F9084800F0CAF800221146DE
:100B50002620FFF781FD40F20531034800F0D4F86C
:100B600010BD0000000801400044004070B505467B
:100B70002C4604E02178044800F05BF8641C2078DF
:100B80000028F7D170BD00000044004010B5FFF709
:100B90007BFFFFF7B3FF10BD2DE9F04704460D467C
:100BA0000027B846B94600261D49601A8C421CD061
:100BB00006DC1C48204470B1B0F5806F1FD10FE0F7
:100BC000B0F5806F16D0B0F56C4F18D10320FFF749
:100BD000AFFD074614E00220FFF7AAFD07460FE02D
:100BE0000220FFF7A5FD07460AE00220FFF7A0FD5F
:100BF000074605E00220FFF79BFD074600E000BF27
:100C000000BF07EB5500B0FBF5F64FF6F07006EAB3
:100C1000000806F00F0948EA0900A060BDE8F08767
:100C2000004C004000BCFFBF01464868C0F308000C
:100C3000704730B504460D46C5F30800606000BF3C
:100C40000721204600F051F80028F9D030BD0000FF
:100C500010B504462049601A8C4228D006DC1F4893
:100C6000204490B1B0F5806F33D117E0B0F5806FBC
:100C700026D0B0F56C4F2CD140F20E30FFF728FE95
:100C800040F20E30FFF714FE24E040F21140FFF76F
:100C90001FFE40F21140FFF70BFE1BE040F2124036
:100CA000FFF716FE40F21240FFF702FE12E040F29C
:100CB0001340FFF70DFE40F21340FFF7F9FD09E086
:100CC00040F21440FFF704FE40F21440FFF7F0FD3D
:100CD00000E000BF00BF10BD004C004000BCFFBFE3
:100CE000C16841F40051C160704710B5024602EB83
:100CF0009110006801F01F040123A340184008B1BF
:100D0000012010BD0020FCE710B500EB9112126825
:100D100001F01F040123A3401A4300EB91131A6052
:100D200010BD70B5024600230024C1F3891010588D
:100D300001F01F060125B54000EA050302EB9150C2
:100D40000068C1F304460125B54000EA050414B16A
:100D50000BB1012070BD0020FCE70A460021C168EC
:100D600021F004011143C16070470A460021C168A7
:100D700021F008011143C16070470000440E0008D3
:100D8000310400080000000000000000500E0008C0
:100D9000E90300080000000000000000200E000829
:100DA0005D0500080000000001000000FC0D0008C7
:100DB0005D05000800000000000000002C0E000887
:100DC0005D0500080100000001000000080E000899
:100DD0005D0500080100000000000000380E00085A
:100DE0005D0500080200000001000000140E00086C
:100DF0005D050008020000000000000061742B6C1B
:100E000065643D302C30000061742B6C65643D31AD
:100E10002C30000061742B6C65643D322C30000076
:100E200061742B6C65643D302C31000061742B6C57
:100E300065643D312C31000061742B6C65643D327A
:100E40002C31000061742B6D6375766572000000B3
:100E500061742B7265736574000000007C0E0008DD
:100E6000000000200C000000DC020008880E0008D2
:100E70000C00002004060000EC0200080000000046
:080E800000000000000000006A
:0400000508000131BD
:00000001FF
